:100000000C94F2000C941A010C941A010C941A012D
:100010000C941A010C941A010C941A010C941A01F4
:100020000C941A010C941A010C941A010C941A01E4
:100030000C941A010C941A010C941A010C941A01D4
:100040000C94F30E0C941A010C94630F0C943D0F56
:100050000C941A010C941A010C941A010C941A01B4
:100060000C941A010C941A015265636569766564F3
:1000700020726573706F6E73652066726F6D20738A
:1000800065727665723A0063825363000108000668
:1000900004000100504F535420244620485454502B
:1000A0002F312E300D0A486F73743A2024460D0A02
:1000B000244624534163636570743A202A2F2A0D25
:1000C0000A436F6E74656E742D4C656E6774683A82
:1000D0002024440D0A436F6E74656E742D5479703C
:1000E000653A206170706C69636174696F6E2F7816
:1000F0002D7777772D666F726D2D75726C656E63D7
:100100006F6465640D0A0D0A24530047455420248A
:1001100046245320485454502F312E300D0A486F36
:1001200073743A2024460D0A24460D0A0D0A004530
:1001300000008200004000204661696C6564207404
:100140006F206163636573732045746865726E65C3
:100150007420636F6E74726F6C6C657200436F6EA7
:1001600074656E742D547970653A206170706C6995
:10017000636174696F6E2F6A736F6E006C6F636179
:100180006C686F73743A3830002F726669640000CF
:10019000000000240027002A00000000002500289D
:1001A000002B0004040404040404040202020202FA
:1001B000020303030303030102040810204080012B
:1001C00002040810200102040810200000000800AA
:1001D000020100000304070000000000000000000E
:1001E000E40F4A1311241FBECFEFD8E0DEBFCDBF0E
:1001F00026E0ACEAB1E001C01D92A73DB207E1F7ED
:1002000011E0A0E0B1E0E8E9FCE202C005900D9247
:10021000AC3AB107D9F710E0C1EFD0E004C02197A4
:10022000FE010E942C14C03FD107C9F70E9458104C
:100230000C943F160C940000CF93DF932091AA05F5
:100240002223C1F0FC0120812223A1F0CAEAD5E0DB
:10025000A6EAB5E09C012C5F3F4F899141919D91A9
:100260008427892339F4E217F307B9F781E0DF9196
:10027000CF91089580E0FBCFCF93DF93EC01FB019A
:100280008A30910548F06AE070E00E94F613CB01D5
:10029000BF010E943C01FC01CE016AE070E00E94B7
:1002A000F613805D80831182CF010196DF91CF919B
:1002B000089590E0FC01E553FE4F2491FC01E954C0
:1002C000FE4F3491FC01ED55FE4FE491EE23C9F051
:1002D000222339F0233001F1A8F4213019F1223022
:1002E00029F1F0E0EE0FFF1FE756FE4FA591B49104
:1002F0008FB7F894EC91611126C030953E233C9362
:100300008FBF08952730A9F02830C9F0243049F76D
:10031000809180008F7D03C0809180008F778093D3
:100320008000DFCF84B58F7784BDDBCF84B58F7D30
:10033000FBCF8091B0008F778093B000D2CF8091B7
:10034000B0008F7DF9CF3E2BDACFCF93DF9390E0D3
:10035000FC01E954FE4F24918D559E4FFC01849180
:100360008823D1F090E0880F991FFC01E157FE4FE0
:10037000A591B491FC01E756FE4FC591D49161114E
:100380000EC09FB7F8948C91E22FE0958E238C934A
:100390002881E223E8839FBFDF91CF9108958FB733
:1003A000F894EC91E22BEC938FBFF6CF3FB7F89423
:1003B0008091A2059091A305A091A405B091A505F7
:1003C00026B5A89B05C02F3F19F00196A11DB11DB0
:1003D0003FBFBA2FA92F982F8827BC01CD01620FEC
:1003E000711D811D911D42E0660F771F881F991FA7
:1003F0004A95D1F708958F929F92AF92BF92CF9274
:10040000DF92EF92FF924B015C010E94D6016B01DB
:100410007C010E94D6016C197D098E099F09683EF6
:10042000734081059105A8F321E0821A9108A10883
:10043000B10888EEC80E83E0D81EE11CF11C8114BF
:100440009104A104B10429F7FF90EF90DF90CF90C1
:10045000BF90AF909F908F9008952FB7F8946091C0
:100460009E0570919F058091A0059091A1052FBFD9
:100470000895AF92BF92CF92DF92EF92FF920F93C7
:100480001F93CF93DF936C017B018B01040F151F2A
:10049000EB015E01AE18BF08C017D10759F0699192
:1004A000D601ED91FC910190F081E02DC6010995F6
:1004B000892B79F7C501DF91CF911F910F91FF90A3
:1004C000EF90DF90CF90BF90AF900895FC01538DD7
:1004D000448D252F30E0842F90E0821B930B54171E
:1004E00010F0CF96089501970895FC01918D828DAB
:1004F000981761F0A28DAE0FBF2FB11D5D968C9144
:10050000928D9F5F9F73928F90E008958FEF9FEF82
:100510000895FC01918D828D981731F0828DE80F3E
:10052000F11D858D90E008958FEF9FEF0895FC01F8
:10053000918D228D892F90E0805C9F4F821B9109C5
:100540008F739927089580E396E00E94970221E037
:10055000892B09F420E0822F089580E090E0892B18
:1005600029F00E94A30281110C9400000895FC015F
:10057000A48DA80FB92FB11DA35ABF4F2C91848D04
:1005800090E001968F739927848FA689B7892C9361
:10059000A089B1898C91837080648C93938D848DB4
:1005A000981306C00288F389E02D80818F7D8083B7
:1005B0000895EF92FF920F931F93CF93DF93EC0177
:1005C00081E0888F9B8D8C8D98131AC0E889F989FA
:1005D000808185FF15C09FB7F894EE89FF896083FD
:1005E000E889F98980818370806480839FBF81E07E
:1005F00090E0DF91CF911F910F91FF90EF900895C0
:10060000F62E0B8D10E00F5F1F4F0F731127E02E9A
:100610008C8D8E110CC00FB607FCFACFE889F989D2
:10062000808185FFF5CFCE010E94B702F1CFEB8D1F
:10063000EC0FFD2FF11DE35AFF4FF0829FB7F894A6
:100640000B8FEA89FB8980818062CFCFCF93DF93C4
:10065000EC01888D8823B9F0AA89BB89E889F989DA
:100660008C9185FD03C0808186FD0DC00FB607FC0F
:10067000F7CF8C9185FFF2CF808185FFEDCFCE0142
:100680000E94B702E9CFDF91CF9108958091E401F4
:100690009091E50198278927982744972091020295
:1006A00030E044E0359527954A95E1F7220F331F56
:1006B000220F331F821B930B97FF02C090E080E054
:1006C00008950F931F93CF93DF9370E06C527E4F8A
:1006D0008A01075F1F4F213029F0223031F48A014F
:1006E0000250110930E020E003C000E010E0980162
:1006F000EB01FA01E230F10558F0A991B991BA275E
:10070000AB27BA270A0F1B1F211D311D3297F2CFCD
:10071000FA01EE7F6E0F7F1F4E175F0769F0FB0136
:10072000408150E070E060E0762F652F542F442721
:10073000040F151F261F371FA901662777274115AC
:1007400051056105710519F022273327F1CF009576
:100750001095E82FF0E0EC52FE4F10830183DF91FB
:10076000CF911F910F910895E4EDF1E0108E118E5D
:1007700080E4848B158A868B20E044E150E06EE0B3
:1007800088E10C946103DC011696ED91FC911797BA
:100790009F012F5F3F4F17963C932E9316976083D0
:1007A00081E090E008958EBD0DB407FEFDCF089561
:1007B00061E080915C050E94590178940895F89455
:1007C00060E080915C050C9459010F931F93CF93C7
:1007D000DF938C01EB010E94DF0301151105A1F0ED
:1007E0008AE70E94D303FE0181918EBDC00FD11F05
:1007F000EC17FD0731F081910DB407FEFDCF8EBDE2
:10080000F7CF0DB407FEFDCFDF91CF911F910F9170
:100810000C94D8030F931F93CF93DF93EC018B01BC
:100820000E94DF032097B9F08AE30E94D3031EBC25
:10083000F801CE01019739F00DB407FEFDCF2EB5BA
:100840001EBC2193F7CF2197C00FD11F0DB407FE17
:10085000FDCF8EB58883DF91CF911F910F910C94BE
:10086000D8031F93CF93DF93182FC62FD42F0E9446
:10087000DF038C2F8F71812B0E94D3038D2F0E9459
:10088000D303DF91CF911F910C94D803CF93C82F3E
:10089000C0768091AE018C1799F043E06FE180EA59
:1008A0000E943104C093AE014C2F50E085E0559575
:1008B00047958A95E1F76FE180E8CF910C94310478
:1008C000CF910895CF93DF93C82FD62F0E9446046F
:1008D0004D2F6C2F80E4DF91CF910C943104CF9396
:1008E000DF93C82FD72F0E9462046D2F81E08C0FF9
:1008F000DF91CF910C946204CF93C82F0E944604DD
:100900000E94DF038C2F8F710E94D30380E00E942E
:10091000D303C7FF03C080E00E94D303CEB50E947B
:10092000D8038C2FCF9108950F931F93CF93DF930C
:1009300000D000D000D0CDB7DEB78091B1018823C0
:1009400079F06091AF017091B0016115710509F006
:1009500053C06FEF7BE08CE00E946F041092B101F6
:1009600089E30E947C0410E000E08823C9F16091D3
:10097000AF017091B00180E00E946F04BE016F5F13
:100980007F4F86E090E00E940A0489819A819093CB
:10099000B0018093AF018D819E818C010078112779
:1009A00087FF12C08B819C81049700915D05109197
:1009B0005E05015011098017910708F48C0164ED60
:1009C00071E0C8010E940A04F801EC52FE4F108247
:1009D00081E08093B10140E46EE180E80E9431043F
:1009E000C80126960FB6F894DEBF0FBECDBFDF91CB
:1009F000CF911F910F91089561507109ACCFCF93A2
:100A0000DF93EC0140E86FE180E80E94310440E8A8
:100A10006FE180EA0E9431044AE06CE180EA0E94C2
:100A2000310460E07CE082E00E946F04BE01745FEC
:100A300086E00E946F0440E060E08AE70E94310493
:100A400064ED71E0CE010E94E50348E06FE180E8CB
:100A50000E943104D0E0C0E08CE10E947C048A70E6
:100A600029F42196C83E83E0D807B1F78CE10E94B3
:100A70007C0481FD03C0C83ED34039F448E06FE1F7
:100A800080EADF91CF910C943104DF91CF910895EA
:100A9000CF93DF93EB01682F84ED0E946204BE01C7
:100AA00086ED0E946F048AEE0E947C0480FDFBCFDD
:100AB000DF91CF910895CF92DF92EF92FF920F9343
:100AC0001F938634910568F12091F701233449F58D
:100AD000C0900202D0900302E0900402F090050260
:100AE0000091B7011091B8012091B9013091BA017C
:100AF000C016D106E206F306A1F4EEEEF2E08C5247
:100B00009E4F9F012E5F3F4F41815081553319F415
:100B10005281651771F0F901E40FF11DE817F9072B
:100B200080F380E01F910F91FF90EF90DF90CF90C6
:100B3000089581E0F7CFE091AC01F091AD019F0104
:100B40002F5F3F4F3093AD012093AC018083089518
:100B5000FF920F931F93CF93DF93162FF42E052F41
:100B60000E949B05812F0E949B05CF2DD02F1150F5
:100B700020F089910E949B05FACFDF91CF911F91C0
:100B80000F91FF900895089590E080E00895CF932D
:100B9000DF939091EE05981781F1C82F20E4929F82
:100BA000C0011124BC017E5E813C9D4048F482E07E
:100BB0000E946F046EEA75E080E490E00E94E50315
:100BC00080912F06C81303C08FEF80932F06C09328
:100BD000EE0580E4C89FE0011124BE017E5EC13CA9
:100BE000DD4058F480E00E946F046EEA75E080E416
:100BF00090E0DF91CF910C940A04DF91CF9108959A
:100C00000F931F93CF93DF93EC01162F8E810E94D9
:100C1000C705E091EC0581E08E0FF0E0E255FA4F58
:100C200010838F3348F48093EC0581E090E0DF91EE
:100C3000CF911F910F910895EFE5F5E030E020E0AE
:100C4000822F91919923B1F170E060E0492F50E03B
:100C5000A62F8A01062E02C0159507950A94E2F781
:100C600000FF23C0215A3A4F41E050E060E070E0BD
:100C70000A2E04C0440F551F661F771F0A94D2F72F
:100C800040954923F9014083880F880F880F8A0F08
:100C90008093ED058E830E94C7051092ED0510929A
:100CA000EC058C818F5F8C83C0CF6F5F7F4F683086
:100CB000710571F62F5F3F4F2730310509F680E04F
:100CC000E7CFFB0101900020E9F73197AF01461B08
:100CD000570B0C943902CF93DF93D0E0C0E000971C
:100CE00031F0BC0180E396E00E946106EC0164E60D
:100CF00071E080E396E00E9461068C0F9D1FDF91FA
:100D0000CF9108950F931F93CF93DF938C01D0E081
:100D1000C0E0F801EC0FFD1F6491662341F080E311
:100D200096E00E94D902892B11F02196F2CF64E659
:100D300071E080E396E00E9461068C0F9D1FDF91B9
:100D4000CF911F910F910895CF92DF92EF92FF9272
:100D50000F931F93CF93DF93EB016A0187E691E036
:100D60000E946B068E010C521E4FC8010E946B063A
:100D700088E690E00E9482067801CC0DDD1DC70157
:100D8000845D91408C179D0740F4F70161917F01CC
:100D900080E396E00E94D902F2CFF8018185823388
:100DA00061F580E791E00E946B0661E086E00E94B9
:100DB000590160E085E00E94590161E087E00E94EE
:100DC000590164EF71E080E090E00E94FB0160E077
:100DD00087E00E94590168E873E180E090E00E949A
:100DE000FB0160E086E0DF91CF911F910F91FF90B2
:100DF000EF90DF90CF900C9459018BE791E00E9427
:100E00006B0661E085E00E94590160E086E00E9487
:100E1000590160EA7FE080E090E00E94FB0160E021
:100E200085E0E1CFCF93DF93EC018091CD069091E7
:100E3000CE06009759F02091CF063091D0062C179E
:100E40003D0720F081E0DF91CF910895BE016F5FF3
:100E50007F4F0E945715009789F09093CE0680939C
:100E6000CD06D093D006C093CF062091D106309105
:100E7000D206232B39F7FC011082E4CF80E0E3CFC8
:100E8000DC0196E0FB0101900D929A95E1F708953F
:100E9000BC0184ED91E00E94400766E675E08AEDB2
:100EA00091E00C944007DC0194E0FB0101900D926D
:100EB0009A95E1F708958AED91E00E9448076EEE59
:100EC00071E082EF91E00E9453076AEA75E08EEECE
:100ED00091E00E9453070C94B403CF93DF93EB018E
:100EE0000E944807BE0182EF91E00E9453076AEA20
:100EF00075E08EEE91E0DF91CF910C945307CF9384
:100F0000DF93EB0144E050E0BC0180EF91E00E94F0
:100F10001416892B49F46AEE71E0CE010E94400755
:100F200081E0DF91CF91089580E0FBCF0F931F9375
:100F3000CF938C018CE491E00E944807E4EDF1E04E
:100F400088E08487C6E0C58748E050E06BE870E041
:100F500082EE91E00E945313E4EFF1E0DF011D9275
:100F6000CA95E9F766E675E08AEE91E00E944007CF
:100F7000B8018AEF91E00E9453076AEA75E080EFBA
:100F800091E00E9453078AE290E0CF911F910F9168
:100F90000C94FF04EF92FF920F931F93CF93DF9374
:100FA0008C01E4EDF1E086E191E0DF019C011D920E
:100FB00021503040E1F78091C701CCE4D1E083308B
:100FC00011F4C2EBD1E0CE010E941C01BE018823C6
:100FD00009F4ACC088EC91E00E946D078881807FA5
:100FE000803E91F088819981AA81BB818F3F9F4F7C
:100FF000AF4FBF4F49F044E050E0BE018CE695E0B2
:101000000E941416892B31F46CE471E084ED91E0B8
:101010000E94400788E08093E0011092E10149E0DE
:1010200050E06FE271E082EE91E00E945313109263
:10103000E40181E18093EB011092F80183E4809355
:10104000F9011092F60184E48093F7011092FA01FD
:101050001092FC011092FD016CE471E084ED91E0CE
:101060000E94400781E08093FE018093FF0186E0AB
:10107000809300028091B7019091B801A091B901CD
:10108000B091BA018093020290930302A0930402EC
:10109000B0930502C091C701C33031F46AEA75E02C
:1010A0008AE092E00E94530766E675E08AE192E0EA
:1010B0000E9440078AEE92E09093AD018093AC01CC
:1010C000E7E8F0E084910E949B05E8E8F0E0849175
:1010D0000E949B05E9E8F0E084910E949B05EAE804
:1010E000F0E084910E949B0585E30E949B0581E0CE
:1010F0000E949B0583E0C11101C081E00E949B0515
:101100008DE30E949B0587E00E949B0581E00E9481
:101110009B0586E6E82E85E0F82EC7E0C15049F031
:10112000D7018D917D010E949B05F8CF8EEC91E057
:1011300053CF80910001882371F060E071E0FB01E2
:1011400001900020E9F7BF016150714040E051E09B
:101150008CE00E94A8050115110559F0A80164E072
:1011600082E30E94A80542EB51E064E086E30E941E
:10117000A80587E30E949B0583E00E949B0581E010
:101180000E949B0583E00E949B0586E00E949B05D0
:101190008FEF0E949B05C091AC01D091AD01CE5F55
:1011A000D140CE014C969093E4018093E5010E94DA
:1011B000B403CE0108969093FA018093FB01AE012F
:1011C000405F5F4F21E06AE188E20E946103CE0147
:1011D0008A96DF91CF911F910F91FF90EF900C9421
:1011E000FF048F929F92AF92BF92CF92DF92EF92C5
:1011F000FF920F931F93CF93DF9300D000D0CDB712
:10120000DEB77C0180917A05882369F08091C7015F
:10121000823009F4F1C008F0E9C0882309F474C1F0
:10122000813009F490C1E114F10409F02BC28091DE
:101230007B05857029F18091740590917505892B46
:10124000F9F461E184ED0E94620461E082ED0E94A4
:1012500062048AEE0E947C0480FDFBCF60E082ED98
:101260000E94620489ED0E947C0482FF09C080E72D
:1012700095E00E94960780917B05886080937B05AE
:1012800080917405909175050196909375058093F2
:10129000740580918105813009F079C080917B05CA
:1012A00081FF75C082E080938105809121018F5F6D
:1012B00080932101F0908205E090830510918005D4
:1012C000A0E21A9F900111248F71182F122B8CE726
:1012D00095E00E941C016CE775E0882309F4BFC10A
:1012E00088EC91E00E946D0708E00093E001109205
:1012F000E10149E050E06FE271E082EE91E00E948E
:1013000053138CE28093E50186E08093EB010E9409
:10131000B403E092F801F092F9018BE08093F601BA
:101320001093F701EAEFF1E0DF011D920A95E9F76A
:10133000809120018093FC018D5F8093200180E6E5
:101340008093020282E08093030293E09093040270
:1013500010920502109206021092070210920802E3
:101360001092090280930A0294E090930B028093FA
:101370000C0286E280930D0222E040E250E06AE136
:1013800082E30E9461038AE390E00E94FF0486E703
:1013900095E00E941C01882379F080915B05811102
:1013A0000BC080915A05811107C086E795E00E9425
:1013B000960781E080935A058CE795E00E941C0116
:1013C000811150C110E000E0C8010F900F900F9004
:1013D0000F90DF91CF911F910F91FF90EF90DF90D1
:1013E000CF90BF90AF909F908F900895833009F475
:1013F00056C0843009F017CF65E0C7010E945B0535
:10140000882309F4C9C08091B601811108C088E31E
:101410000E947C04682F6E7F88E30E9462046EE065
:1014200072E08AEA95E00E945307EEEEF2E0C7010F
:101430008C529E4F6C018F010E5F1F4FB1808081D7
:10144000863009F4FBC008F0BEC0813009F4ECC05E
:10145000833009F4EFC0F801EB0DF11DEC15FD052B
:1014600050F30E942D026093BF017093C0018093DE
:10147000C1019093C20180917005882361F01092A0
:1014800075051092740581E080937B0560E775E037
:10149000CB010E94530783E08093C701C4CE8090A4
:1014A000C3019090C401A090C501B090C6012FEF78
:1014B00082169206A206B20609F4B5CE0E942D024B
:1014C0000091BF011091C0012091C1013091C20172
:1014D000601B710B820B930B681579058A059B05C0
:1014E00008F4A1CE8AEA95E00E94CA0784E08093BE
:1014F000C7010E942D026093BB017093BC018093D1
:10150000BD019093BE018FCE0E942D026093B70162
:101510007093B8018093B9019093BA01EAEAF5E0BB
:1015200084E0DF011D928A95E9F790E080E00E9457
:10153000CA0788E30E947C04682F616088E30E94E8
:10154000620481E0D4CF62E0C7010E945B0588237A
:1015500019F16EE072E0CE0101960E945307EEEEA3
:10156000F2E0C7018C529E4FBF016E5F7F4F218119
:101570003081363351F482EB91E00E945307CE0163
:1015800001960E94CA0782E0B2CFFB01E20FF11D73
:10159000E817F90748F3F3CF0E942D020091BB0131
:1015A0001091BC012091BD013091BE01601B710BF7
:1015B000820B930B613177428105910508F433CE9C
:1015C0001092C70130CE8A3331F08F3F09F449CFF2
:1015D000833309F040CF1092C3011092C4011092DE
:1015E000C5011092C601F801C801049620E030E060
:1015F000A9016191542F432F322F2227260F311D2D
:10160000411D511D8E179F07A1F72F3F9FEF3907EF
:1016100049075907B9F42093C3013093C40140939B
:10162000C5015093C60117CFB80186EA95E00E9424
:10163000530711CFB80180E795E0F9CFB80186E7ED
:1016400095E0F5CFA8EEB3E00E94A5136093C30127
:101650007093C4018093C5019093C601FCCE8EECBB
:1016600091E040CE809159058111ACCE8091580512
:101670008111A8CE8CE795E00E94960781E08093C7
:101680005805A0CEB9E2EB16F10408F49BCE809188
:10169000E001883009F096CE8091E101863009F0B2
:1016A000A5C144E050E06AEA75E08AEF91E00E944B
:1016B0001416892B09F086CE8091E901813029F535
:1016C0008AED91E00E9448071092E80182E0809341
:1016D000E9016AEE71E084EF91E00E94400766E65E
:1016E00075E08AEE91E00E94400760EF71E08AEFBA
:1016F00091E00E9453076AEA75E080EF91E00E9452
:1017000053078AE290E00E94FF0480917B0583FFEB
:101710000DC01091E901123049F46EEC71E080E7E0
:1017200095E00E947F07811110937B0580915B05F6
:10173000811111C080915A05882369F068EC71E02D
:1017400086E795E00E947F07882329F081E0809357
:101750005B0510925A0580915905811133CE809115
:101760005805882309F42ECE68EC71E08CE795E0EB
:101770000E947F07882309F425CE81E080935905D4
:10178000109258051FCE26E3E216F10408F41ACE93
:10179000863009F017CE2091F8012B3009F0BAC03D
:1017A00044E050E06CE775E08EEE91E00E94141684
:1017B000892B09F007CED0900302D2FE15C0E0912C
:1017C0008605F0918705309759F08091F90130E056
:1017D00020E050E040E063E08295869587700995AF
:1017E00085E080938105EECD0E9446038C018091B7
:1017F0008105823009F045C09D2D90718D2D82713B
:10180000823189F560E090E080E00E94C00F88E1BD
:1018100080930302E0918405F091850510E000E0DB
:10182000309739F08091F7018295869587700995F8
:101830008C0183E080938105C80188969093E40130
:101840008093E5010E94B4031092060210920702F1
:10185000A801445E5F4F22E06AE182E30E946103D7
:10186000C801C69609C181E080938105911106C027
:10187000C801019664E00E94C00FA4CD90E080E012
:10188000F9CF8330A1F501151105A1F1E09186058D
:10189000F0918705309771F18091020290E024E089
:1018A000959587952A95E1F7880F991F880F991FBD
:1018B0008296A701485051098417950708F4AC0196
:1018C000C801840F951F9701241B350BE816F906F4
:1018D00008F098018091F90160E082958695877003
:1018E000099569E0C8010E94C00F86E07ACF853073
:1018F00009F468CDD0FE07C0833009F463CD69E0F8
:10190000C8010196F0CF0115110509F45BCD60E027
:10191000C801B1CF309138018091390190E028178A
:10192000190609F04FCD8091F90183134BCDD0906A
:101930000302D1FE39C01092E4018CE28093E501EC
:101940000E945B0782E18093030260E081E090E007
:101950000E94950F1092FA011092FB0180912001D4
:101960008093FC011092FD018D5F8093200182E045
:1019700080930A0284E080930B0285E080930C023E
:1019800010920D0290E6909302028093040288E781
:101990008093050222E040E250E06AE182E30E9487
:1019A00061038AE390E068C0D4FE0CCD0E94460338
:1019B0008C01892B99F00091020210E084E01595CA
:1019C00007958A95E1F7000F111F000F111F0E5D9B
:1019D0001F4FE016F10608F0F7CCF4CCD0FEF2CCA5
:1019E00060E090E080E00E94C00FEECC99E2E91642
:1019F000F10409F4E7CC8111E5CC8091E201853452
:101A000009F0E0CC44E050E06AEA75E082EF91E052
:101A10000E941416892BA9F044E050E06CE675E0B2
:101A200082EF91E00E941416892B59F044E050E0B7
:101A30006CE471E082EF91E00E941416892B09F0AA
:101A4000C1CC8091EB01813009F09DCE8091F601EF
:101A5000883009F0B7CC0E945B071092F6018091A4
:101A6000F801883F28F09091F9019F5F9093F90168
:101A7000885F8093F801C7010E94FF04A3CC0F93F5
:101A80001F93CF93DF93890190918805981781F078
:101A9000E0918905F0918A0550E040E070E060E057
:101AA00084E0099580E0DF91CF911F910F91089517
:101AB0006111F8CF2D303105A8F3C0918905D0917F
:101AC0008A05209779F3BA0163527E4F43E050E0D4
:101AD00088E891E00E9431166091020270E024E0F3
:101AE000759567952A95E1F7660F771F660F771F43
:101AF0006E5D7F4F21E0892B09F420E0A801822F41
:101B0000FE01CFCFAF92BF92CF92DF92EF92FF92C2
:101B10000F931F93CF93DF93CDB7DEB7ED84FE8491
:101B2000CF84D8888E010F5E1F4FC6010196F60143
:101B30002491222309F4D1C0243279F0D7011696DA
:101B4000ED91FC911797AF014F5F5F4F17965C9334
:101B50004E93169720836C01E8CFB2E0CB0ED11CD8
:101B6000FC018491863409F481C0A0F4843409F422
:101B70004CC0853409F494C0D7011696ED91FC91C0
:101B800017979F012F5F3F4F17963C932E93169701
:101B90008083CBCFD70116964D915C918C3409F49C
:101BA0004DC0833509F457C0883431F7B8016E5FF2
:101BB0007F4FF8019081292F092E000C330B84E010
:101BC000359527958A95E1F72F709F709A300CF024
:101BD000995F905D2A300CF0295FFA013196D701A8
:101BE0001796FC93EE931697205DFA0120831696C4
:101BF000ED91FC9117979F012F5F3F4F17963C93F4
:101C00002E93169790838B0190CF5801B2E0AB0EC4
:101C1000B11CF70166817781D8018D919C910E945A
:101C20003C01F70186819781DC010D900020E9F7E6
:101C3000CD01019797838683850177CF5801F4E022
:101C4000AF0EB11CD8016D917D918D919C912AE0D0
:101C50000E945C13E6CF5801B2E0AB0EB11CF80154
:101C600060817181CA010E942A16DBCFF8010190C0
:101C7000F081E02D0E5F1F4F84913196882309F487
:101C800054CFD70116964D915C9117979A012F5F0B
:101C90003F4F17963C932E931697DA018C93ECCF17
:101CA000F801808191810E5F1F4F5C01BFEFAB1A7D
:101CB000BB0A0E949D13882309F437CFD7011696DB
:101CC000ED91FC9117979F012F5F3F4F17963C9323
:101CD0002E9316978083C501E8CFDF91CF911F9196
:101CE0000F91FF90EF90DF90CF90BF90AF9008954D
:101CF0000F931F93CF93DF93CDB7DEB728970FB61F
:101D0000F894DEBF0FBECDBF1C821B8224E431E0FD
:101D10003A8329832AE032E03E832D8338872F835C
:101D20009091880598132AC0A0918B05B0918C05DD
:101D300010918F0500919005609191057091920529
:101D400080918D0590918E05AE014F5F5F4F10978A
:101D500031F59F938F930F931F931F921F927F9341
:101D60006F938BE091E09F938F935F934F930E94CB
:101D7000820D0FB6F894DEBF0FBECDBF8F81988560
:101D80002D813E81821B930B28960FB6F894DEBFFF
:101D90000FBECDBFDF91CF911F910F910895FD012F
:101DA00001900020E9F73197EA1BFB0B24E631E0B4
:101DB000009721F426E631E083E990E0BF93AF93EA
:101DC000FF93EF933F932F939F938F930F931F93C3
:101DD0007F936F9384E990E09F938F935F934F93EA
:101DE0000E94820DC6CF1F920F920FB60F92112440
:101DF0002F933F938F939F93AF93BF9380919E05B3
:101E000090919F05A091A005B091A10530919D05ED
:101E100023E0230F2D3758F50196A11DB11D209306
:101E20009D0580939E0590939F05A093A005B09378
:101E3000A1058091A2059091A305A091A405B09160
:101E4000A5050196A11DB11D8093A2059093A30540
:101E5000A093A405B093A505BF91AF919F918F91D9
:101E60003F912F910F900FBE0F901F90189526E86D
:101E7000230F0296A11DB11DD2CF1F920F920FB654
:101E80000F9211242F933F934F935F936F937F9300
:101E90008F939F93AF93BF93EF93FF9380E396E06D
:101EA0000E94B702FF91EF91BF91AF919F918F91E7
:101EB0007F916F915F914F913F912F910F900FBE46
:101EC0000F901F9018951F920F920FB60F9211242A
:101ED0002F938F939F93EF93FF93E0914006F091A0
:101EE00041068081E0914606F091470682FD1BC0C5
:101EF0009081809149068F5F8F7320914A068217E7
:101F000041F0E0914906F0E0E05DF94F958F809354
:101F10004906FF91EF919F918F912F910F900FBEE6
:101F20000F901F9018958081F4CF2091F801309187
:101F3000F6013093F8012093F6012091F9013091D8
:101F4000F7013093F9012093F701E4EDF1E021A5C9
:101F5000820F911D25A585A7662381F021A7892FD2
:101F60009927319721E0E03DF20789F710920602A8
:101F70001092070280E580930202089511A6EFCF28
:101F8000262F206120930302643021F0009711F482
:101F900081E090E061E00E94950F1092E40188E2F8
:101FA0008093E5010E945B0784E080930402109215
:101FB000050222E04CE150E06AE182E30E94610305
:101FC00086E390E00C94FF041092330610923206E0
:101FD00088EE93E0A0E0B0E080933406909335065D
:101FE000A0933606B093370686E591E090933106CC
:101FF0008093300685EC90E090933D0680933C06FC
:1020000084EC90E090933F0680933E0680EC90E055
:10201000909341068093400681EC90E090934306B4
:102020008093420682EC90E09093450680934406AC
:1020300086EC90E0909347068093460610924906FE
:1020400010924A0610924B0610924C061092CE0641
:102050001092CD061092D0061092CF061092D206A2
:102060001092D10690E080E00E9412072091CD06E8
:102070003091CE06811113C02115310519F0C90127
:102080000E94CE141092CE061092CD061092D20667
:102090001092D1061092D0061092CF060895109299
:1020A000D2061092D10666E671E0C9010C942A1698
:1020B000CF93DF93CDB7DEB7A1970FB6F894DEBF0D
:1020C0000FBECDBF789484B5826084BD84B5816035
:1020D00084BD85B5826085BD85B5816085BD8091F3
:1020E0006E00816080936E0010928100809181006B
:1020F0008260809381008091810081608093810063
:10210000809180008160809380008091B100846024
:102110008093B1008091B00081608093B000809185
:102120007A00846080937A0080917A008260809344
:102130007A0080917A00816080937A0080917A00A1
:10214000806880937A001092C100E0914006F0917F
:10215000410682E08083E0913C06F0913D061082CA
:10216000E0913E06F0913F068FEC80831092480686
:10217000E0914406F091450686E08083E0914206B6
:10218000F0914306808180618083E0914206F09166
:102190004306808188608083E0914206F091430687
:1021A000808180688083E0914206F09143068081BF
:1021B0008F7D808361E085E00E94A50161E086E07B
:1021C0000E94A50161E087E00E94A50110927A05B6
:1021D00087E390E0C12CD12C7601C3940097C1F025
:1021E000FC01A3E0F595E795AA95E1F7E15AFA4FCE
:1021F000282F2770B701A60104C0440F551F661F82
:10220000771F2A95D2F72081242B20830197E6CFD0
:1022100062E371E086E695E00E94400784E893E07F
:1022200090935E0580935D050CB406FC25C061E0CB
:102230008AE00E94A50161E08AE00E94590161E004
:102240008BE00E94A50161E08DE00E94A50160E0A5
:102250008CE00E94A50161E08BE00E94590160E0E2
:102260008BE00E94590160E08DE00E94590180E5F9
:102270008CBD8DB581608DBD8AE080935C0561E089
:102280000E94A5010E94D8034FEF60E08FEF0E94EB
:10229000310462E070E080E090E00E94FB010E9467
:1022A000DF038DE10E94D30380E00E94D3031EB5BB
:1022B0000E94D803112399F370E060E088E00E9447
:1022C0006F0470E060E08CE00E946F046FEF7BE0D1
:1022D0008AE00E946F0460E07CE084E00E946F046A
:1022E0006FEF71E186E00E946F0466E774E084E1BD
:1022F0000E94480561EB88E30E9462046FE370E38B
:1023000088E20E946F0469EF77EF80E30E946F0418
:1023100061E080EC0E94620442E362EC80E80E948B
:10232000310462E17CE086EC0E946F0462E184EC9F
:102330000E9462046CED75E08AEC0E946F0460916B
:10234000660584EE0E9462046091670585EE0E9436
:1023500062046091680582EE0E94620460916905E2
:1023600083EE0E94620460916A0580EE0E9462041E
:1023700060916B0581EE0E94620460E071E080E193
:102380000E9448058FE10E94460440EC6BE180E822
:102390000E94310444E06FE180E80E94310482E74A
:1023A0000E947C04863008F08F5F811104C088E3AE
:1023B00091E00E94820610927A056EE271E08AEA4C
:1023C00095E00E945307109275051092740581E004
:1023D00080937B056AE271E080E795E00E945307F5
:1023E00066E271E086EA95E00E945307EAEAF5E0CA
:1023F00026EA35E06CE675E04EEA55E09191D901A8
:102400008D919D018095892BDB018D93BD014E1728
:102410005F07A1F762E271E08CE795E00E94530745
:102420006CE871E080E396E00E9461066CE7E62EBE
:1024300065E0F62E10E07AE0872E912CA12CB12CCD
:10244000F70121917F0130E050E040E019A26E01D8
:10245000F1E2CF0ED11CCA01B901A50194010E947D
:102460000A14605DD6016E936D0121153105410599
:10247000510589F7109729F0BD0180E396E00E948D
:102480006106133029F06EE280E396E00E94D902E3
:102490001F5F1430A9F664E671E080E396E00E94C5
:1024A000610680917B0581FD05C00E9494040E9415
:1024B000F108F7CF85E991E00E946B0688E79CEE72
:1024C000AFEFBFEF8093950590939605A093970586
:1024D000B093980580E5882E912C99E8A92E91E07B
:1024E000B92E2CE7C22E21E0D22E3DE5632E31E03D
:1024F000732E44EA442E46E0542E5FE3252E5DE021
:10250000352E0E942D020091990510919A05209177
:102510009B0530919C05601B710B820B930B683EF1
:1025200073408105910568F30E942D02609399051F
:1025300070939A0580939B0590939C0564E671E0E7
:1025400080E396E00E9461060E9494040E94F108D4
:102550000E942D02AB01BC018091950590919605DA
:10256000A0919705B091980588579C4EAF4FBF4FEB
:1025700084179507A607B70720F60E942D026093DF
:10258000950570939605809397059093980583EA37
:1025900091E00E946B06909239018092380180E3AD
:1025A00096E00E949702892B09F4ABCF80E396E076
:1025B0000E94750200919305109194050F5F1F4FC3
:1025C000109394050093930589831A82E090D106B5
:1025D000F090D206EFEFEE1AFE0AC7010E94120732
:1025E000882399F02091CD063091CE068091D106B6
:1025F0009091D206BE016F5F7F4F820F931F0E94A2
:102600002A16F092D206E092D1060A30110539F668
:102610004091D1065091D2066091CD067091CE06C0
:1026200080E396E00E9439028091CD069091CE061B
:10263000B0929205A0929105D0929005C0928F051C
:1026400070928E0560928D0590938C0580938B051A
:1026500050928A0540928905809138019091390104
:10266000309287052092860528E73EE03093850565
:1026700020938405909383058093820531E0309305
:102680008105809180058F5F87708093800580939E
:10269000880537CF8091CD069091CE06009711F036
:1026A0000C94CE140895FB01DC0102C005900D923C
:1026B00041505040D8F70895BB272A3051F4992350
:1026C00042F4BDE290958095709561957F4F8F4F54
:1026D0009F4F0C946C13BB27FA01A62F621771054C
:1026E00081059105330B30FB66F0AA27660F771F33
:1026F000881F991FAA1FA21710F0A21B63953850BC
:10270000A9F7A05DAA3308F0A95DA19336F7B1112E
:10271000B1931082CA010C948D13DC01FC01672F68
:1027200071917723E1F7329704C07C916D937083A8
:102730006291AE17BF07C8F30895F999FECF92BD15
:1027400081BDF89A992780B508950E94E713A59F47
:10275000900DB49F900DA49F800D911D112408959C
:102760002F923F924F925F926F927F928F929F92A1
:10277000AF92BF92CF92DF92EF92FF920F931F938F
:10278000CF93DF93CDB7DEB7CA1BDB0B0FB6F89440
:10279000DEBF0FBECDBF09942A88398848885F8480
:1027A0006E847D848C849B84AA84B984C884DF80F1
:1027B000EE80FD800C811B81AA81B981CE0FD11DD5
:1027C0000FB6F894DEBF0FBECDBFED010895A29FF6
:1027D000B001B39FC001A39F700D811D1124911DF5
:1027E000B29F700D811D1124911D0895AA1BBB1B62
:1027F00051E107C0AA1FBB1FA617B70710F0A61B01
:10280000B70B881F991F5A95A9F780959095BC0121
:10281000CD010895A1E21A2EAA1BBB1BFD010DC01C
:10282000AA1FBB1FEE1FFF1FA217B307E407F50780
:1028300020F0A21BB30BE40BF50B661F771F881F5C
:10284000991F1A9469F760957095809590959B01F2
:10285000AC01BD01CF010895EE0FFF1F0590F4916B
:10286000E02D09940F931F93CF93DF93823091054E
:1028700010F482E090E0E091D506F091D60630E0C9
:1028800020E0B0E0A0E0309799F42115310509F47B
:102890004AC0281B390B24303105D8F58A819B8129
:1028A0006115710589F1FB0193838283FE0111C0DB
:1028B000408151810281138148175907E0F0481780
:1028C000590799F4109761F012960C93129713968A
:1028D0001C933296CF01DF91CF911F910F910895F4
:1028E0000093D5061093D606F4CF2115310551F08B
:1028F0004217530738F0A901DB019A01BD01DF013E
:10290000F801C1CFEF01F9CF9093D6068093D50699
:10291000CDCFFE01E20FF31F819391932250310935
:1029200039832883D7CF2091D3063091D406232B27
:1029300041F420913C0130913D013093D406209325
:10294000D30620913A0130913B012115310541F424
:102950002DB73EB740913E0150913F01241B350BEE
:10296000E091D306F091D406E217F307A0F42E1BF2
:102970003F0B2817390778F0AC014E5F5F4F2417E3
:10298000350748F04E0F5F1F5093D4064093D3068F
:10299000819391939FCFF0E0E0E09CCFCF93DF93C2
:1029A0000097E9F0FC01329713821282A091D506BC
:1029B000B091D606ED0130E020E01097A1F420811F
:1029C0003181820F931F2091D3063091D4062817AE
:1029D000390709F061C0F093D406E093D306DF9184
:1029E000CF910895EA01CE17DF07E8F54A815B81B0
:1029F0009E0141155105B1F7E901FB83EA83499135
:102A00005991C40FD51FEC17FD0761F480819181A6
:102A10000296840F951FE9019983888382819381AF
:102A20009B838A83F0E0E0E012968D919C9113974E
:102A30000097B9F52D913C911197CD010296820F27
:102A4000931F2091D3063091D4062817390739F601
:102A5000309751F51092D6061092D506B093D40651
:102A6000A093D306BCCFD383C28340815181840F0E
:102A7000951FC817D90761F44E5F5F4F8881998110
:102A8000480F591F518340838A819B81938382839E
:102A90002115310509F0B0CFF093D606E093D506A5
:102AA0009ECFFD01DC01C0CF13821282D7CFB0E0F0
:102AB000A0E0EDE5F5E10C94B2138C01009751F420
:102AC000CB010E9432148C01C801CDB7DEB7E0E122
:102AD0000C94CE13FC01E60FF71F9C012250310924
:102AE000E217F30708F49DC0D901CD91DC9111974D
:102AF000C617D70798F0C530D10530F3CE0104973B
:102B00008617970708F3C61BD70B2297C193D1935B
:102B10006D937C93CF010E94CE14D6CF5B01AC1A8B
:102B2000BD0A4C018C0E9D1EA091D506B091D60613
:102B3000512C412CF12CE12C109731F58091D306CA
:102B40009091D4068815990509F05CC04616570681
:102B500008F058C080913A0190913B01009741F4F0
:102B60008DB79EB740913E0150913F01841B950B5C
:102B7000E817F90708F055C0F093D406E093D306A0
:102B8000F90171836083A0CF8D919C91119712966A
:102B90006C90129713967C901397A815B90559F568
:102BA0006C0142E0C40ED11CCA14DB0420F1AC015C
:102BB0004A195B09DA011296159780F062827382D6
:102BC00051834083D9016D937C93E114F10471F03A
:102BD000D7011396FC93EE93129776CF22968C0F23
:102BE0009D1FF90191838083F301EFCFF093D60607
:102BF000E093D50669CF4816590608F42C017D01EB
:102C0000D3019ACFCB010E9432147C01009749F086
:102C1000AE01B8010E942116C8010E94CE1487019E
:102C200053CF10E000E050CFFB01DC0104C08D91D8
:102C30000190801921F441505040C8F7881B990B2E
:102C40000895FB01DC0102C001900D9241505040FB
:102C5000D8F70895FB01DC0101900D920020E1F707
:102C60000895FB01DC014150504030F08D910190FE
:102C7000801919F40020B9F7881B990B089510E00A
:102C8000C1EFD0E004C0FE010E942C142196C23F87
:082C9000D107C9F7F894FFCF4A
:102C980041726475696E6F2D454E4332386A36301D
:102CA8002D3030000000000000000000000000008F
:102CB8000A01C0A80201FFFFFF00C0A80201C0A8C6
:102CC80002027469692D303150000000D706800077
:102CD80000000000C3033902C405C305FFFFFFFF5E
:102CE800FFFF00000000D90239026602260397029E
:102CF800750289020D0A003C3C3C3C2052455300B9
:102D080056616C6964204361726400496E76616C37
:102D18006964204361726400323030005365727612
:102D280065723A20004761746577617920666F752E
:0C2D38006E64000A3E3E3E2052455100F1
:00000001FF
